:100000000C94BC000C94DD000C94DD000C94DD001D
:100010000C94DD000C94DD000C94DD000C94DD00EC
:100020000C94DD000C94DD000C94DD000C94DD00DC
:100030000C94DD000C94DD000C94DD000C94DD00CC
:100040000C94DD000C94DD000C94DD000C94DD00BC
:100050000C94C9060C94DD000C94DD000C94DD00BA
:100060000C94DD000C94DD000C94DD000C94DD009C
:100070000C94DD000C94DD000C94DD000C94DD008C
:100080000C94DD000C94DD000C94DD000C94DD007C
:100090000C94DD000C94DD000C94DD000C94DD006C
:1000A0000C94DD000C94DD000C94DD000C94DD005C
:1000B0000C94DD000C94DD000C94DD000C94DD004C
:1000C0000C94DD000C9480010C94DD000C94B201C2
:1000D0000C9499010C94DD000C94DD000C94DD006F
:1000E0000C94DD000C94DD000C94DD000C94DD001C
:1000F0000C94DD000C94DD000C94DD000C94DD000C
:100100000C94DD000C94DD000C94DD000C94DD00FB
:100110000C94DE020C949A020C94DD000C9468039B
:100120000C94DD000C94DD000C94DD000C94DD00DB
:100130000C94DD000C9451010C94DD000C94DD0056
:100140000C94DD000C94DD000C94DD000C94DD00BB
:100150000C94DD000C94DD000C94DD000C94DD00AB
:100160000C94DD000C94DD000C94DD000C94DD009B
:100170000C94DD000C94DD0011241FBECFEFDFE2F4
:10018000DEBFCDBF18BE19BE1ABE1BBE10E2A0E076
:10019000B0E2E2ECF2E202C005900D92AC32B1079F
:1001A000D9F711E2ACE2B0E201C01D92A63BB10763
:1001B000E1F70E948E060C945F110C9400002F92C0
:1001C0003F924F925F926F927F928F929F92AF92E7
:1001D000BF92CF92DF92EF92FF920F931F93E62E82
:1001E000A42E809385206093A7204093AA2040905E
:1001F00030205090312032018824992490E0A0E0F2
:10020000B0E0BC01CD01A40193010E941F0E2FEFAD
:1002100030E040E050E00E94510EC201821B930B7F
:10022000212C2AE0322EF10180AF91AFFF2400E0B3
:1002300010E0C801B701A40193010E941F0E2FEF27
:1002400030E040E050E00E94510EC201821B930B4F
:1002500080933E0A90933F0ABB24CC24DD24C60140
:10026000B501A40193010E941F0E2FEF30E040E082
:1002700050E00E94510E421A530AF10144AE55AEAD
:100280001F910F91FF90EF90DF90CF90BF90AF90B4
:100290009F908F907F906F905F904F903F902F90A6
:1002A00008951F920F920FB60F9208B60F9209B6DB
:1002B0000F92112418BE19BE8F939F93AF93BF93D3
:1002C00080912C2090912D20A0912E20B0912F2054
:1002D0000196A11DB11D80932C2090932D20A093F9
:1002E0002E20B0932F20BF91AF919F918F910F90AF
:1002F00009BE0F9008BE0F900FBE0F901F9018956B
:100300001F920F920FB60F9208B60F92112418BECB
:100310008F93EF93FF9381E0E0E6F6E08583FF9112
:10032000EF918F910F9008BE0F900FBE0F901F900E
:1003300018951F920F920FB60F9208B60F921124C4
:1003400018BE8F93EF93FF9382E0E0E6F6E085839B
:10035000FF91EF918F910F9008BE0F900FBE0F90FD
:100360001F9018951F920F920FB60F9208B60F921A
:10037000112418BE8F93EF93FF9384E0E0E6F6E03C
:100380008583FF91EF918F910F9008BE0F900FBE64
:100390000F901F90189580E293E068E040E00E9483
:1003A000620C80E293E061E040E00E949D0C0895C1
:1003B00080E498E060E00E94DF0980E498E06CE06F
:1003C0000E94D30980E091E0E0E4F8E086A397A3DF
:1003D00080E498E061E00E94130A089580E499E0C7
:1003E00060E00E94DF0980E499E061E00E94D309A7
:1003F0008DE59BE0E0E4F9E086A397A380E068ED5B
:100400000E94A50C0895EF92FF920F931F9380E036
:1004100092E00E94E50A00E012E0F8018181897E05
:10042000806181838481887F8460848382818F7CE2
:100430008062828330E2E32E32E0F32EF701808186
:10044000807E8F60808389E08183F8018081816074
:10045000808380E092E00E943E0B80E092E060E2C8
:1004600072E041E00E94710B992787FD909580937F
:10047000382090933920F80180818E7F8083F701A6
:100480008081807E8260808381E28183F801838124
:100490008F738383F7018281807F82608283F8017A
:1004A0008381807C8160838380818160808380E020
:1004B00092E00E943E0B1F910F91FF90EF900895E4
:1004C00080E893E061E00E94A20A80E893E060E0A7
:1004D00040E127E00E94940A80E893E061E040E177
:1004E00027E00E94940A80E893E060E040EC20E37B
:1004F0000E94790A80E893E061E040E820E30E94EE
:10050000790A80E893E060E044E00E94870A80E88E
:1005100093E061E044E00E94870A80E893E060E0B5
:1005200040E00E94570A80E893E061E040E00E94CA
:10053000570A08951F920F920FB60F9208B60F92A6
:1005400009B60F92112418BE19BE2F933F934F93F3
:100550005F936F937F938F939F93AF93BF93EF932B
:10056000FF9380E09AE060E00E94CD0987E0E0E63A
:10057000F6E08683E0E0FAE084E0818780A191A143
:10058000809332209093332088E0818781E08093AC
:100590003520FF91EF91BF91AF919F918F917F9106
:1005A0006F915F914F913F912F910F9009BE0F90E6
:1005B00008BE0F900FBE0F901F9018951F920F92BC
:1005C0000FB60F9208B60F9209B60F92112418BEFB
:1005D00019BE2F933F934F935F936F937F938F93A6
:1005E0009F93AF93BF93EF93FF9380E09AE065E012
:1005F0000E94CD0981E080933420FF91EF91BF915B
:10060000AF919F918F917F916F915F914F913F91AA
:100610002F910F9009BE0F9008BE0F900FBE0F9044
:100620001F90189580E09AE060E00E94D90980E070
:100630009AE060E00E94CD09E0E6F6E087E0818381
:10064000868380E09AE060ED0E94F30980E09AE002
:1006500063E00E94250A80E09AE060EC0E94430A71
:1006600080E09AE060E30E943D0A089580E099E00E
:1006700060E00E94D90980E099E066E00E94CD091F
:100680008DE790E0E0E0F9E086A397A380E099E0B1
:1006900062E00E940D0A08950E94E30CE0EAF0E097
:1006A0008281816082838281826082838281846090
:1006B00082837894089580915000826080935000E6
:1006C0008091510081FFFCCF81E00E94EE0B0895E4
:1006D0001F920F920FB60F9208B60F9209B60F92A3
:1006E000112418BE19BE2F923F924F925F926F92C3
:1006F0007F928F929F92AF92BF92CF92DF92EF92B2
:10070000FF920F931F932F933F934F935F936F939A
:100710007F938F939F93AF93BF93EF93FF93DF9359
:10072000CF93CDB7DEB76897CDBFDEBF80E292E052
:10073000609138200E94180B7C010027F7FC00957F
:10074000102F8CEA9FEFAFEFBFEFE80EF91E0A1FE4
:100750001B1FE092A820F092A92080914020909148
:100760004120A0914220B09143208D8B9E8BAF8B76
:10077000B88F80933C2090933D20A0933E20B0936F
:100780003F20A0904C20B0904D20C0904E20D090A3
:100790004F20A0924820B0924920C0924A20D09287
:1007A0004B20C801B70122E831E040E050E00E9450
:1007B0001F0E1B012C0160934020709341208093F9
:1007C000422090934320C601B5012DED3DE040E06D
:1007D00050E00E941F0E3B014C018D899E89AF891C
:1007E000B88D680E791E8A1E9B1E620C731C841CB9
:1007F000951CBCE09594879477946794BA95D1F74B
:1008000060924C2070924D2080924E2090924F200A
:100810008DED9FEFAFEFBFEF680E791E8A1E9B1E16
:10082000E092A320F092A42080915820909159202A
:10083000A0915A20B0915B20898B9A8BAB8BBC8B9B
:100840008093542090935520A0935620B093572026
:1008500080915C2090915D20A0915E20B0915F20FE
:100860008093582090935920A0935A20B0935B20F6
:10087000A0906420B0906520C0906620D090672042
:10088000A0926020B0926120C0926220D09263203A
:10089000209068203090692040906A2050906B2012
:1008A000209264203092652040926620509267200A
:1008B000C801B70123E436E040E050E00E941F0E7B
:1008C0006D877E878F87988B60935C2070935D2007
:1008D00080935E2090935F20C601B50125E83CEF30
:1008E0004FEF5FEF0E941F0E5B016C01C201B1016F
:1008F00025EB3CEF4FEF5FEF0E941F0EA60EB71ED9
:10090000C81ED91E89899A89AB89BC89A81AB90AD7
:10091000CA0ADB0A8D859E85AF85B889A80EB91EE7
:10092000CA1EDB1EACE0D594C794B794A794AA95D1
:10093000D1F7A0926820B0926920C0926A20D0922C
:100940006B20E092AD21F092AE21809170209091C9
:100950007120A0917220B091732089879A87AB870C
:10096000BC8780936C2090936D20A0936E20B093F1
:100970006F208091742090917520A0917620B09185
:1009800077208093702090937120A0937220B09371
:10099000732080917C2090917D20A0917E20B09149
:1009A0007F208D839E83AF83B88780937820909338
:1009B0007920A0937A20B0937B20209080203090E3
:1009C0008120409082205090832020927C20309281
:1009D0007D2040927E2050927F20C801B70124E202
:1009E00036E040E050E00E941F0E69837A838B83DB
:1009F0009C836093742070937520809376209093ED
:100A00007720C201B10120E03DEE4FEF5FEF0E9481
:100A10001F0E7B018C0189859A85AB85BC85E81A00
:100A2000F90A0A0B1B0B6D817E818F8198852DE859
:100A30003BEF4FEF5FEF0E941F0EE60EF71E081F01
:100A4000191F89819A81AB81BC81E80EF91E0A1FAA
:100A50001B1FFCE015950795F794E794FA95D1F7DD
:100A6000E0928020F09281200093822010938320D6
:100A7000C401B301A40193010E941F0E95958795AF
:100A800077956795959587957795679520918620B9
:100A9000309187204091882050918920260F371F60
:100AA000481F591F20938620309387204093882029
:100AB00050938920C601B501A60195010E941F0E21
:100AC000959587957795679595958795779567958A
:100AD00020918A2030918B2040918C2050918D2044
:100AE000260F371F481F591F20938A2030938B20D1
:100AF00040938C2050938D20C801B701A801970125
:100B00000E941F0E95958795779567959595879582
:100B10007795679520918E2030918F20409190207D
:100B200050919120260F371F481F591F20938E2068
:100B300030938F204093902050939120A0E0B8E014
:100B40006A0E7B1E80E293E0B30140E00E94820CBB
:100B500080E060E10E94D60C81E0809336206896A8
:100B6000CDBFDEBFCF91DF91FF91EF91BF91AF91EC
:100B70009F918F917F916F915F914F913F912F91B5
:100B80001F910F91FF90EF90DF90CF90BF90AF90AB
:100B90009F908F907F906F905F904F903F902F909D
:100BA0000F9009BE0F9008BE0F900FBE0F901F90C0
:100BB000189500C000C008950F931F938C010E94E8
:100BC000280980EC9DE50197F1F780E090E00E9414
:100BD000200980E090E20E940D0980E490E00E94EC
:100BE0002009C8010E940D090000FECF0F931F933A
:100BF000209185203091A7204091AA208DB79EB7E3
:100C00000A978DBF9EBFEDB7FEB7319602E910E29D
:100C1000ADB7BEB711960D931C93129786E090E284
:100C200082839383248315823683178240871186BB
:100C30000E94870E8DB79EB70A968DBF9EBF80E437
:100C400090E00E942009C8010E940D091F910F9198
:100C50000895EF92FF920F931F93E0902C20F09055
:100C60002D2000912E2010912F2080E197E2A0E00E
:100C7000B0E0E80EF91E0A1F1B1F20E030E040E044
:100C800050E060E070E080913520882329F5809164
:100C90002C2090912D20A0912E20B0912F208E15E8
:100CA0009F05A007B10778F30E94280980EC9DE515
:100CB0000197F1F780E090E00E94200980E090E247
:100CC0000E940D0980E490E00E9420098AE190E2F0
:100CD0000E940D090000FECF109235208091322035
:100CE00090913320A0E0B0E0280F391F4A1F5B1F0E
:100CF0006F5F7F4F6C33710534F2CA01B9012CE389
:100D000030E040E050E00E94510E209330203093BC
:100D100031201F910F91FF90EF900895DF93CF93B3
:100D2000CDB7DEB72897CDBFDEBF0E945B0300C002
:100D300000C00E9436030E9412030E9460020E94BB
:100D4000EE010E94D8010E9403020E94CB010E9482
:100D50004C030E94290619821A821B821C821D8262
:100D60001E821F8218862091292030912A2080918E
:100D700035208823E1F31092352080913220909124
:100D800033208217930798F7209132203091332037
:100D9000EECF1F920F920FB60F9208B60F9209B6C0
:100DA0000F92112418BE19BE2F923F924F925F925C
:100DB0006F927F928F929F92AF92BF92CF92DF926B
:100DC000EF92FF920F931F932F933F934F935F9355
:100DD0006F937F938F939F93AF93BF93EF93FF9303
:100DE000DF93CF93CDB7DEB76C97CDBFDEBF8091D9
:100DF0003A2090913B208093A8209093A9201092B4
:100E00003A2010923B208091862090918720A091DB
:100E10008820B0918920892F9A2FAB2FBB27888FEC
:100E2000998F8C839D831092862010928720109238
:100E300088201092892080918A2090918B20A09107
:100E40008C20B0918D20892F9A2FAB2FBB278E8BB2
:100E50009F8B8E839F8310928A2010928B201092FA
:100E60008C2010928D2080918E2090918F20A091C7
:100E70009020B0919120892F9A2FAB2FBB278B8F79
:100E80009C8F8887998710928E2010928F201092C5
:100E9000902010929120409184204A8F74E0A72ED8
:100EA000B12CAC0EBD1EA42FB0E0AA0FBB1FA555E0
:100EB000BF4D5AE0C52ED12CCC0EDD1E8E01005F39
:100EC0001F4F6624772488248A94982CEE24FF24CC
:100ED00044244A94542C46E5242E312CF50180817B
:100EE00091818D939C931197F60110821182F801E4
:100EF000408251826FEF7FEF40E050E0E29CF001D2
:100F0000E39CF00DF29CF00D1124E555FF4D20E01F
:100F1000808191814817590708F4AC01861797071B
:100F200008F4BC012F5F32962B3291F7F8016083F1
:100F30007183F601408351836416750608F43A0103
:100F40006815790508F44B010894E11CF11C42E096
:100F500050E0A40EB51EAA5ABF4FC40ED51E0E5F98
:100F60001F4F53E0E516F10409F0B8CF8A859B8541
:100F70008034910510F480E490E08A879B878C850B
:100F80009D858034910510F480E490E08C879D87E6
:100F90000E851F850034110510F400E410E0288947
:100FA0003989EA85FB85E21BF30BE230F10510F18C
:100FB000488D598DBA0180E090E040E050E0621B1E
:100FC000730B840B950B982F872F762F66279F0125
:100FD00040E050E00E94510EC9012093A8203093B8
:100FE000A920DA018F3F9105A105B10511F008F0A4
:100FF000F1C089832A893B89EC85FD85E21BF30BCF
:10100000E230F105F0F04E895F89BA0180E090E0AE
:1010100040E050E0621B730B840B950B982F872FD9
:10102000762F66279F0140E050E00E94510EC901D3
:10103000DA018F3F9105A105B10511F008F0C5C097
:101040008A832C893D89F801E21BF30BE230F1051C
:10105000F0F04B8D5C8DBA0180E090E040E050E014
:10106000621B730B840B950B982F872F762F6627A7
:101070009F0140E050E00E94510EC901DA018F3F0C
:101080009105A105B10511F008F09AC08B838A8DF6
:101090008F5F809384208B3210F010928420888D93
:1010A000998D8093A3209093A4208092AD2190925B
:1010B000AE21C3018034910510F480E490E0809368
:1010C000A5209093A6202981EA80AB8020938520DB
:1010D000E092A720A092AA2040903020509031208A
:1010E00032018824992430E040E050E0C401B3018B
:1010F0000E941F0E2FEF30E040E050E00E94510EA2
:10110000C201821B930B212C1AE0312EF10180AF1A
:1011100091AFFF2400E010E0C801B701A4019301E2
:101120000E941F0E2FEF30E040E050E00E94510E71
:10113000C201821B930B80933E0A90933F0ABB240B
:10114000CC24DD24C601B501A40193010E941F0E29
:101150002FEF30E040E050E00E94510E421A530A57
:10116000F10144AE55AE81E0809337206C96CDBF3F
:10117000DEBFCF91DF91FF91EF91BF91AF919F9132
:101180008F917F916F915F914F913F912F911F911F
:101190000F91FF90EF90DF90CF90BF90AF909F9016
:1011A0008F907F906F905F904F903F902F900F9017
:1011B00009BE0F9008BE0F900FBE0F901F9018959C
:1011C0008FEF90E0A0E0B0E061CF8FEF90E0A0E083
:1011D000B0E036CF8FEF90E0A0E0B0E00ACFEF9222
:1011E000FF920F931F93CF93DF937C018B01161611
:1011F000170664F4C0E0D0E0F701EC0FFD1F80811A
:101200000E94A1092196C017D107B4F3DF91CF91B5
:101210001F910F91FF90EF900895CF93DF93FC0102
:101220008081882339F0EF010E94A10989812196EC
:101230008823D1F7DF91CF9108950E94A1090895E5
:1012400080580E94B709089582E00E94B709089566
:1012500081E00E94B70908950E94630980E30E941B
:10126000B70980E89EE30197F1F780E30E94B70990
:1012700080E30E94B70989E30E94B70984E10E94D4
:10128000B70986E50E94B7098DE60E94B70988E78D
:101290000E94B7098CE00E94B70986E00E94B70956
:1012A00086E00E94B70981E00E94B70920E030E0A3
:1012B00040E253E0CA010197F1F72F5F3F4F243618
:1012C0003105C1F708958F929F92AF92CF92EF921E
:1012D0000F9340E4842E46E0942E83E1F401818351
:1012E00088E3848B808B80E1858381E086838FEA2D
:1012F00091E260EC78E040E456E020E000E0EE248B
:10130000CC2432E0A32E0E94EB0C82E0F401868311
:10131000E0E8FEE33197F1F7F401858320E030E067
:1013200040E253E0CA010197F1F72F5F3F4F283C9D
:101330003105C1F70F91EF90CF90AF909F908F90B4
:101340000895FF920F931F93682F00E416E050E179
:10135000F52EF801F68281E085838FEA91E20E9402
:10136000CF0DF801F5821F910F91FF900895FF9224
:101370000F931F93682F00E416E070E1F72EF80139
:10138000F68281E086838FEA91E20E94CF0DF80118
:10139000F5821F910F91FF900895FC018081807F5D
:1013A000862B80830895FC018081807F862B80833B
:1013B0000895FC018181887F862B81830895FC013B
:1013C0008181887F862B81830895FC0183818071D0
:1013D0008062862B83830895FC0183818071806203
:1013E000862B83830895FC018181607F862B818316
:1013F0000895FC0181816073862B81830895FC012F
:101400008181607F6095862381830895FC018181BD
:1014100060736095862381830895FC0186818C7FAB
:10142000862B86830895FC0186818C7F862B86839C
:101430000895FC018681837F862B86830895FC01B5
:101440008681837F862B86830895FC0187818C7F2C
:10145000862B87830895FC0187818C7F862B878369
:101460000895FC018781837F862B87830895FC0183
:101470008781837F862B87830895FC0187818F7CFA
:10148000862B87830895FC0187818F73862B878342
:101490000895FC018081807F80838CE0818708959E
:1014A000FC018081807F80838CE081870895FC012E
:1014B000662351F49081442311F481E001C089E056
:1014C000977F892B808308959181442311F481E0D3
:1014D00001C089E0977F892B81830895FC016623F1
:1014E00021F480818E7F8083089581818E7F818326
:1014F0000895FC01242B662329F480818F70282B0A
:101500002083089581818F70282B21830895FC0109
:10151000662329F48081897F842B808308958181CB
:10152000897F842B81830895FC01242B662329F471
:101530008281807C282B228308958381807C282BC4
:1015400023830895FC0185816F73807C862B8583BE
:101550000895FC0186816061642B807F862B8683E1
:101560000895FC018FEE86830895FC0184818160DB
:1015700084830895FC0184818E7F84830895FC0117
:10158000662319F4878180710895613011F080E03D
:101590000895878180720895FC018781807C089579
:1015A000FC01662329F4878180FFFDCF81E004C020
:1015B000878181FFFDCF82E087830895FC018781C9
:1015C00082FFFDCF84E087830895DC0182E0A030B4
:1015D000B80781F482E08093CA01E0E2F0E0E49190
:1015E0001092CA011C96EC931C978093CA01E1E209
:1015F000F0E00FC082E08093CA01E4E2F0E0E49101
:101600001092CA011C96EC931C978093CA01E5E2E4
:10161000F0E0E4911092CA011D96EC930895FC014C
:1016200081E0838324813581261B3109C901089516
:10163000FC0181E0838324813581772767FD7095E4
:10164000261B370BC9010895FC0181E083832481A7
:101650003581C9010895FC0181E083838481089567
:10166000FC0181E0838385810895FC0184811482DB
:10167000A0E0B2E01197F1F784830895FC01948112
:1016800081E08483A0E0B4E01197F1F7948308959A
:10169000FB014423D9F020E030E040E050E061E07D
:1016A000808180688083838180FFFDCF6383848114
:1016B0009581280F391F4F5F5F4F4430510581F7E7
:1016C0003695279536952795822F089580818068D5
:1016D0008083838180FFFDCF81E083838481958136
:1016E0000895FB014423D9F040E050E020E030E0D1
:1016F00061E0808180688083838180FFFDCF638388
:1017000084819581480F591F2F5F3F4F2430310549
:1017100081F7CA0164E070E00E943E0E0BC0808138
:1017200080688083838180FFFDCF81E08383848113
:101730009581682F862F0895AAECB1E092E09C93E2
:10174000E82FF0E0E4911C928E2F08950F93DF9321
:10175000CF930F92CDB7DEB72FB72983F8941BBE76
:10176000FC0108ED04BF608389818FBF0F90CF918A
:10177000DF910F910895662311F490E001C090E28B
:10178000482B942BE0E5F0E0928308956F71682B6D
:10179000E0E5F0E065830895E0E5F0E02081982F32
:1017A0009095922390839081892308950F93DF93DE
:1017B000CF930F92CDB7DEB79FB79983F8941BBE36
:1017C000682B81E490E0FC0108ED04BF608389810F
:1017D0008FBF0F90CF91DF910F9108950F93DF93FB
:1017E000CF930F92CDB7DEB7209140009FB799837A
:1017F000F8941BBEA0E4B0E0287F282BFD0108ED83
:1018000004BF208399819FBF9C9189230F90CF9122
:10181000DF910F910895E0E4F0E09381917F916072
:10182000982B93830895282F30915600662311F04A
:10183000982F01C090E0822F80958323982BE0E5BC
:10184000F0E09683213031F48091680081608093CC
:1018500068000895223029F48091600081608093AF
:10186000600008950F93DF93CF930F92CDB7DEB74B
:101870008FB78983F8941BBE23E083E590E0FC01D9
:1018800008ED04BF208389818FBF0F90CF91DF9136
:101890000F9108950F93DF93CF930F92CDB7DEB7DB
:1018A0008FB78983F8941BBE21E082E490E0FC01AD
:1018B00008ED04BF208389818FBF0F90CF91DF9106
:1018C0000F910895FC0181818F7981838281867EC9
:1018D000682B642B62838081827F8560808308957A
:1018E0000F93FC0181818F79806481838281867E60
:1018F000682B642B6283022B048380818D6080833C
:101900000F910895FC01442319F4608F718F08959D
:10191000628F738F0895FC018581662319F421E09D
:1019200030E002C022E030E040E090E0282339239C
:10193000232B09F041E0842F0895FC0181818C7FE5
:10194000862B8183477043830895883010F080E0B0
:101950000895E82FF0E0E058FE4F608381E008959D
:101960000F93882331F0823021F0843011F080E031
:1019700010C0442311F490E001C090E1211128E04F
:10198000062B902B922BE82FF0E0E857FE4F908328
:1019900081E00F910895883010F080E00895E82FDD
:1019A000F0E0E857FE4F608381E00895E0E8F1E061
:1019B000818B608B0895E0EAF0E08281806498ED8D
:1019C00094BF82830895E0EAF0E082818F7B98EDF6
:1019D00094BF82830895AF92CF92EF920F93DC0170
:1019E000FB016D937C93119712964D935C93139723
:1019F00014961C921497CC2011F490E001C090E84A
:101A0000222311F480E001C080E200650A29902BB6
:101A1000892B8083ED91FC911197E18215961D929F
:101A20001C9216971296ED91FC91139780EA818390
:101A30000F91EF90CF90AF900895EF920F93DC014C
:101A4000FB016D937C93119712964D935C931397C2
:101A5000222311F480E401C080E6802B8083ED9185
:101A6000FC911197E1821296ED91FC91139780E41D
:101A700081830F91EF900895EF920F931F93FC01D4
:101A800000831183E28263837483458356832783B3
:101A9000108611861F910F91EF900895CF93DF93D9
:101AA000DC011596CD91DC9116979885ED91FC910E
:101AB0001197808184FD05C081E014968C93149762
:101AC00024C08381ED81FE81E90FF11D80839F5F3A
:101AD0001596ED91FC9116978781981758F403801D
:101AE000F481E02DE90FF11D8081ED91FC911197BA
:101AF00083830BC082810190F081E02D8583159650
:101B0000ED91FC91169781E081871596ED91FC91FE
:101B100016979087DF91CF910895CF93DF93DC01E3
:101B2000EB0114969C9114971596ED91FC911697E4
:101B3000309729F415966D937C93169710C0818584
:101B4000882311F482E028C0992349F01296ED9180
:101B5000FC911397848184FD02C081E01DC015961D
:101B6000CD93DC931697198614961C9214978A814C
:101B7000E881F98186831596ED91FC911697108680
:101B80001596ED91FC9116970380F481E02D8081EC
:101B9000ED91FC91838380E0DF91CF910895FC016A
:101BA000A081B18113966C930190F081E02D828128
:101BB00087FFFDCF83810895CF93DF93EC01FB0175
:101BC0006115710511F480E037C06D837E83428119
:101BD000A081B181109711F016964C93678190E027
:101BE0001AC0292F30E00380F481E02DE20FF31FAB
:101BF0008081E881F9818383E881F981828187FF8F
:101C0000FDCF8381ED81FE810580F681E02DE20F1D
:101C1000F31F80839F5FED81FE81961710F3019083
:101C2000F081E02D309709F04583ED81FE816087DA
:101C3000ED81FE8181E08187DF91CF910895629FE0
:101C4000D001739FF001829FE00DF11D649FE00DB4
:101C5000F11D929FF00D839FF00D749FF00D659F15
:101C6000F00D9927729FB00DE11DF91F639FB00D14
:101C7000E11DF91FBD01CF011124089597FB092E25
:101C800007260AD077FD04D02ED006D000201AF403
:101C9000709561957F4F0895F6F7909581959F4FC8
:101CA0000895A1E21A2EAA1BBB1BFD010DC0AA1F9D
:101CB000BB1FEE1FFF1FA217B307E407F50720F0B5
:101CC000A21BB30BE40BF50B661F771F881F991F30
:101CD0001A9469F760957095809590959B01AC0179
:101CE000BD01CF010895AA1BBB1B51E107C0AA1F6C
:101CF000BB1FA617B70710F0A61BB70B881F991FAD
:101D00005A95A9F780959095BC01CD010895AEE054
:101D1000B0E0EDE8FEE00C9436110D891E8986E0F6
:101D20008C8309831A838FEF9FE78D839E839E01A7
:101D3000275E3F4FCE0101966F89788DA9010E94E1
:101D4000AB0E2F813885020F131FF80110822E96DB
:101D5000E4E00C945211ABE0B0E0E1EBFEE00C9457
:101D600028113C012B015A01FC0116821782838144
:101D700081FD03C06FEF7FEFC6C19AE0892E1E017F
:101D80000894211C311CF3012381F20123FD85916C
:101D900023FF81912F01882309F4B2C1853239F4E0
:101DA00023FD859123FF81912F01853229F490E055
:101DB000B3010E949E10E7CF982FFF24EE249924B0
:101DC000FFE1FF15D0F09B3269F09C3228F490328D
:101DD00059F0933291F40EC09D3249F0903369F47A
:101DE00041E024C052E0F52A84E0F82A28C098E0B7
:101DF000F92A25C0E0E1FE2A22C0F7FC29C0892F7C
:101E000080538A3070F4F6FE05C0989C902C112403
:101E1000980E15C0E89CE02C1124E80EF0E2FF2A91
:101E20000EC09E3229F4F6FC6BC140E4F42A07C0D0
:101E30009C3619F450E8F52A02C0983649F4F201AC
:101E400023FD959123FF91912F01992309F0B8CF9C
:101E5000892F8554833018F08052833038F444E061
:101E600050E0A40EB51E5FE359830FC0933631F0E6
:101E7000933779F0933509F056C020C0F501808181
:101E8000898342E050E0A40EB51E610101E010E03C
:101E900012C0F501C080D180F6FC03C06FEF7FEF68
:101EA00002C0692D70E042E050E0A40EB51EC601EC
:101EB0000E9493108C015FE7F52214C0F501C080E9
:101EC000D180F6FC03C06FEF7FEF02C0692D70E098
:101ED00042E050E0A40EB51EC6010E9488108C019D
:101EE00050E8F52AF3FE07C01AC080E290E0B30183
:101EF0000E949E10EA948E2D90E008171907A8F30F
:101F00000EC0F601F7FC8591F7FE81916F0190E01C
:101F1000B3010E949E10E110EA9401501040011597
:101F2000110579F7EAC0943611F0993669F5F7FE94
:101F300008C0F501208131814281538184E090E025
:101F40000AC0F501808191819C01442737FD4095AD
:101F5000542F82E090E0A80EB91E9FE6F92257FFA9
:101F600009C050954095309521953F4F4F4F5F4F99
:101F7000E0E8FE2ACA01B901A1012AE030E00E948E
:101F8000CA10D82ED21840C0953729F41F2D1F7EB5
:101F90002AE030E01DC01F2D197F9F3661F0903779
:101FA00020F4983509F0ACC00FC0903739F098375D
:101FB00009F0A6C004C028E030E00AC0106114FD9A
:101FC000146020E130E004C014FD166020E132E02E
:101FD00017FF08C0F501608171818281938144E01F
:101FE00050E008C0F50180819181BC0180E090E063
:101FF00042E050E0A40EB51EA1010E94CA10D82EE6
:10200000D2188FE7F82EF122F6FE0BC05EEFF52214
:10201000D91438F4F4FE07C0F2FC05C08FEEF822A4
:1020200002C01D2D01C0192DF4FE0DC0FE01ED0DE5
:10203000F11D8081803319F499EEF92208C01F5FE9
:10204000F2FE05C003C08F2D867809F01F5F0F2DAB
:10205000F3FC14C0F0FE0FC01E1510F09D2C0BC039
:102060009D2C9E0C911A1E2D06C080E290E0B301BB
:102070000E949E101F5F1E15C0F304C01E1510F4B1
:10208000E11A01C0EE2404FF0FC080E390E0B30129
:102090000E949E1002FF1DC001FD03C088E790E072
:1020A0000EC088E590E00BC0802F867891F001FF8C
:1020B00002C08BE201C080E2F7FC8DE290E0B30148
:1020C0000E949E1006C080E390E0B3010E949E1023
:1020D0009A94D914C0F3DA94F101ED0DF11D8081C9
:1020E00090E0B3010E949E10DD20A9F706C080E2B7
:1020F00090E0B3010E949E10EA94EE20C1F743CE17
:10210000F30166817781CB012B96E2E10C944411B7
:10211000FC010590615070400110D8F780959095B2
:102120008E0F9F1F0895FC016150704001900110B7
:10213000D8F7809590958E0F9F1F08950F931F934A
:10214000CF93DF938C01EB018B8181FF1BC082FF5A
:102150000DC02E813F818C819D812817390764F441
:10216000E881F9810193E883F98306C0E885F98560
:10217000802F0995892B31F48E819F8101968E8362
:102180009F8302C00FEF1FEFC801DF91CF911F9116
:102190000F910895FA01AA27283051F1203181F1D9
:1021A000E8946F936E7F6E5F7F4F8F4F9F4FAF4F5F
:1021B000B1E03ED0B4E03CD0670F781F891F9A1F72
:1021C000A11D680F791F8A1F911DA11D6A0F711D26
:1021D000811D911DA11D20D009F468943F912AE032
:1021E000269F11243019305D3193DEF6CF0108951A
:1021F000462F4770405D4193B3E00FD0C9F7F6CF4B
:10220000462F4F70405D4A3318F0495D31FD405212
:10221000419302D0A9F7EACFB4E0A69597958795A8
:1022200077956795BA95C9F7009761057105089587
:102230009B01AC010A2E0694579547953795279533
:10224000BA95C9F7620F731F841F951FA01D0895CB
:102250002F923F924F925F926F927F928F929F92B6
:10226000AF92BF92CF92DF92EF92FF920F931F93A4
:10227000CF93DF93CDB7DEB7CA1BDB0B0FB6F89455
:10228000DEBF0FBECDBF09942A88398848885F8495
:102290006E847D848C849B84AA84B984C884DF8006
:1022A000EE80FD800C811B81AA81B981CE0FD11DEA
:1022B0000FB6F894DEBF0FBECDBFED010895F894C0
:0222C000FFCF4E
:1022C2004552524F5200613A2532582C20623A252B
:1022D20032582C20633A2532580066696E64696E62
:0C22E2006720706572696F6400800C005A
:00000001FF
