:100000000C94FA000C9420010C9420010C94200113
:100010000C9420010C9420010C9420010C942001DC
:100020000C9420010C9420010C9420010C942001CC
:100030000C9420010C9420010C9420010C942001BC
:100040000C9420010C9420010C9420010C942001AC
:100050000C94AC050C9420010C9420010C9420010C
:100060000C9420010C9420010C9420010C9420018C
:100070000C9420010C9420010C9420010C9420017C
:100080000C9420010C9420010C9420010C9420016C
:100090000C9420010C9420010C9420010C9420015C
:1000A0000C9420010C9420010C9420010C9420014C
:1000B0000C9420010C9420010C9420010C9420013C
:1000C0000C9420010C94C3010C9420010C94FF01AA
:1000D0000C94E1010C9420010C9420010C9420015B
:1000E0000C9420010C9420010C9420010C9420010C
:1000F0000C9420010C9420010C9420010C942001FC
:100100000C9420010C9420010C9420010C942001EB
:100110000C9435030C94EC020C9420010C94C40351
:100120000C9420010C9420010C9420010C942001CB
:100130000C9420010C9494010C9420010C94200147
:100140000C9420010C9420010C9420010C942001AB
:100150000C9420010C9420010C9420010C9420019B
:100160000C9420010C9420010C9420010C9420018B
:100170000C9420010C9420010C9420010C9420017B
:100180000C9420010C9420010C9420010C9420016B
:100190000C9420010C9420010C9420010C9420015B
:1001A0000C9420010C9420010C9420010C9420014B
:1001B0000C9420010C9420010C9420010C9420013B
:1001C0000C9420010C9420010C9420010C9420012B
:1001D0000C9420010C9420010C9420010C9420011B
:1001E0000C9420010C9420010C9420010C9420010B
:1001F0000C94200111241FBECFEFDFE3DEBFCDBF83
:1002000000E00CBF18BE19BE1ABE1BBE10E2A0E073
:10021000B0E2E6E3FFE100E00BBF02C007900D9201
:10022000AC32B107D9F71BBE11E2ACE2B0E201C0BB
:100230001D92AE36B107E1F70E9473050C94990F39
:100240000C9400002F923F924F925F926F927F9298
:100250008F929F92AF92BF92CF92DF92EF92FF92D6
:100260000F931F93E62EA42E80933D2060935F2072
:1002700040936220409030205090312032018824F9
:10028000992490E0A0E0B0E0BC01CD01A40193016D
:100290000E94660C2FEF30E040E050E00E94980C86
:1002A000C201821B930B212C2AE0322EF10180AF78
:1002B00091AFFF2400E010E0C801B701A401930151
:1002C0000E94660C2FEF30E040E050E00E94980C56
:1002D000C201821B930B80933E0A90933F0ABB247A
:1002E000CC24DD24C601B501A40193010E94660C53
:1002F0002FEF30E040E050E00E94980C421A530A81
:10030000F10144AE55AE1F910F91FF90EF90DF9039
:10031000CF90BF90AF909F908F907F906F905F90A5
:100320004F903F902F9008951F920F920FB60F920B
:1003300008B60F9209B60F92112418BE19BE8F93FA
:100340009F93AF93BF9380912C2090912D20A091EB
:100350002E20B0912F200196A11DB11D80932C203D
:1003600090932D20A0932E20B0932F20BF91AF917A
:100370009F918F910F9009BE0F9008BE0F900FBEF6
:100380000F901F9018951F920F920FB60F9208B6FC
:100390000F920BB60F92112418BE1BBE8F93EF93D2
:1003A000FF9381E0E0E8F6E08583FF91EF918F9184
:1003B0000F900BBE0F9008BE0F900FBE0F901F90B6
:1003C00018951F920F920FB60F9208B60F920BB6A8
:1003D0000F92112418BE1BBE8F93EF93FF9382E000
:1003E000E0E8F6E08583FF91EF918F910F900BBECF
:1003F0000F9008BE0F900FBE0F901F9018951F9280
:100400000F920FB60F9208B60F920BB60F921124EF
:1004100018BE1BBE8F93EF93FF9384E0E0E8F6E0F5
:100420008583FF91EF918F910F900BBE0F9008BEC7
:100430000F900FBE0F901F90189580E293E068E038
:1004400040E00E94A90A80E293E061E040E00E945F
:10045000E40A089580E498E060E00E94260880E4C1
:1004600098E06CE00E941A0880E091E0E0E4F8E097
:1004700086A397A380E498E061E00E945A0808955B
:1004800080E499E060E00E94260880E499E061E061
:100490000E941A088DE59BE0E0E4F9E086A397A3AB
:1004A00080E068ED0E94EC0A0895EF92FF920F93AE
:1004B0001F9380E092E00E942C0900E012E0F80116
:1004C0008181897E806181838481887F8460848347
:1004D00082818F7C8062828330E2E32E32E0F32ED1
:1004E000F7018081807E8F60808389E08183F801BD
:1004F00080818160808380E092E00E94850980E0B5
:1005000092E060E272E041E00E94B809992787FD1D
:1005100090958093382090933920F80180818E7FC8
:100520008083F7018081807E8260808381E2818385
:10053000F80183818F738383F7018281807F8260DA
:100540008283F8018381807C8160838380818160E4
:10055000808380E092E00E9485091F910F91FF90B7
:10056000EF90089580E893E06FE30E94E90880E847
:1005700093E060E040E127E00E94DB0880E893E040
:1005800061E040E127E00E94DB0880E893E060E062
:1005900040EC20E30E94C00880E893E061E040E87E
:1005A00020E30E94C00880E893E060E042E00E94FF
:1005B000CE0880E893E061E042E00E94CE0880E847
:1005C00093E060E040E00E949E0880E893E061E0F4
:1005D00040E00E949E0808951F920F920FB60F925E
:1005E00008B60F9209B60F920BB60F92112418BEDF
:1005F00019BE1BBE2F933F934F935F936F937F93CF
:100600008F939F93AF93BF93EF93FF9380E09AE014
:1006100060E00E94140887E0E0E8F6E08683E0E00E
:10062000FAE084E0818780A191A1809332209093A9
:10063000332088E0818781E080933520FF91EF911E
:10064000BF91AF919F918F917F916F915F914F91EA
:100650003F912F910F900BBE0F9009BE0F9008BED7
:100660000F900FBE0F901F9018951F920F920FB60C
:100670000F9208B60F9209B60F920BB60F92112483
:1006800018BE19BE1BBE2F933F934F935F936F937A
:100690007F938F939F93AF93BF93EF93FF9380E0EC
:1006A0009AE065E00E94140881E080933420FF9175
:1006B000EF91BF91AF919F918F917F916F915F91DA
:1006C0004F913F912F910F900BBE0F9009BE0F904D
:1006D00008BE0F900FBE0F901F90189580E09AE013
:1006E00060E00E94200880E09AE060E00E94140828
:1006F000E0E8F6E087E08183868380E09AE060EDC1
:100700000E943A0880E09AE063E00E946C0880E072
:100710009AE060EC0E948A0880E09AE060E30E9420
:100720008408089580E099E060E00E94200880E05D
:1007300099E066E00E9414088DE790E0E0E0F9E0BF
:1007400086A397A380E099E062E00E945408089590
:100750000E942A0BE0EAF0E082818160828382813C
:1007600082608283828184608283789408958091FC
:1007700050008260809350008091510081FFFCCF37
:1007800081E00E94350A08951F920F920FB60F92D2
:1007900008B60F9209B60F920AB60F920BB60F92D7
:1007A000112418BE19BE1ABE1BBEEF92FF920F9302
:1007B0001F932F933F934F935F936F937F938F93E9
:1007C0009F93AF93BF93CF93DF93EF93FF9380E219
:1007D00092E0609138200E945F09EC0188E292E08B
:1007E000609138200E945F098C0180E392E0609163
:1007F00038200E945F097C01D7FDADC020913A20CE
:1008000030913B20CE014C2F892FC217D30708F41B
:100810009EC040933A2080933B209E01442737FDA1
:100820004095542FCA01B9010E94660CE7E09595E6
:10083000879577956795EA95D1F720913E2030917D
:100840003F204091402050914120260F371F481FE4
:10085000591F20933E2030933F20409340205093D7
:1008600041209801442737FD4095542FCA01B90112
:100870000E94660C57E095958795779567955A95F0
:10088000D1F7209142203091432040914420509153
:100890004520260F371F481F591F209342203093B1
:1008A000432040934420509345209701442737FD2F
:1008B0004095542FCA01B9010E94660C47E09595F6
:1008C0008795779567954A95D1F720914620309185
:1008D00047204091482050914920260F371F481F3C
:1008E000591F20934620309347204093482050932F
:1008F0004920C050D84F80E293E0BE0140E00E9402
:10090000C90A80E060E10E941D0B81E080933620DF
:10091000FF91EF91DF91CF91BF91AF919F918F9117
:100920007F916F915F914F913F912F911F910F9107
:10093000FF90EF900F900BBE0F900ABE0F9009BE74
:100940000F9008BE0F900FBE0F901F901895C90111
:10095000422F892F5ECF20913A2030913B2088276B
:1009600099278C1B9D0B8217930728F080933A20C0
:1009700090933B2052CFC90180933A2090933B2023
:100980004CCF0F931F938C010E946F0780EC9DE565
:100990000197F1F780E090E00E94670780E090E225
:1009A0000E94540780E490E00E946707C8010E94FB
:1009B00054070000FECF0F931F9320913D203091EC
:1009C0005F20409162208DB79EB70A978DBF9EBF72
:1009D000EDB7FEB731960AE410E2ADB7BEB7119697
:1009E0000D931C93129786E090E282839383248375
:1009F000158236831782408711860E94CE0C8DB7F0
:100A00009EB70A968DBF9EBF80E490E00E94670764
:100A1000C8010E9454071F910F910895EF92FF9211
:100A20000F931F93E0902C20F0902D2000912E200A
:100A300010912F2080E197E2A0E0B0E0E80EF91ECF
:100A40000A1F1B1F20E030E040E050E060E070E053
:100A500080913520882329F580912C2090912D209C
:100A6000A0912E20B0912F208E159F05A007B107D1
:100A700078F30E946F0780EC9DE50197F1F780E025
:100A800090E00E94670780E090E20E94540780E4B3
:100A900090E00E9467078AE190E20E9454070000FC
:100AA000FECF109235208091322090913320A0E02B
:100AB000B0E0280F391F4A1F5B1F6F5F7F4F6C33F9
:100AC000710534F2CA01B9012CE330E040E050E096
:100AD0000E94980C20933020309331201F910F9169
:100AE000FF90EF900895DF93CF93CDB7DEB72897AF
:100AF000CDBFDEBF0E94B7030E9492030E946E0327
:100B00000E94B2020E9440020E942A020E945502E4
:100B10000E941D020E94A8030E940E0519821A82DB
:100B20001B821C821D821E821F8218862091292012
:100B300030912A20809135208823E1F310923520CE
:100B400080913220909133208217930798F720915B
:100B5000322030913320EECF1F920F920FB60F92BA
:100B600008B60F9209B60F920BB60F92112418BE59
:100B700019BE1BBE2F923F924F925F926F927F924F
:100B80008F929F92AF92BF92CF92DF92EF92FF929D
:100B90000F931F932F933F934F935F936F937F9385
:100BA0008F939F93AF93BF93EF93FF93DF93CF9375
:100BB000CDB7DEB76897CDBFDEBF80913A20909168
:100BC0003B20809360209093612010923A201092F5
:100BD0003B2080913E2090913F20A0914020B091F9
:100BE0004120892F9A2FAB2FBB278E8B9F8B8C8315
:100BF0009D8310923E2010923F2010924020109230
:100C000041208091422090914320A0914420B091B6
:100C10004520892F9A2FAB2FBB278E839F8310925D
:100C2000422010924320109244201092452080913F
:100C3000462090914720A0914820B0914920892FCB
:100C40009A2FAB2FBB278887998710924620109246
:100C50004720109248201092492020913C20288F54
:100C600044E0A42EB12CAC0EBD1EA22FB0E0AA0F02
:100C7000BB1FAD59BF4D2AE0C22ED12CCC0EDD1EBC
:100C800090E1E92EF12CEC0EFD1E882499246624B7
:100C90006A94762C00E010E022242A94322C86E517
:100CA000482E512CF501808191818D939C93119751
:100CB000F60110821182F701208231826FEF7FEFFF
:100CC00040E050E0049DF001059DF00D149DF00DF5
:100CD0001124ED59FF4D20E080819181481759077B
:100CE00008F4AC018617970708F4BC012F5F329611
:100CF0002B3291F7F70160837183F60140835183B2
:100D00008416950608F44A016615770508F43B0138
:100D10000F5F1F4F22E030E0A20EB31EAA5ABF4F52
:100D2000C20ED31EE20EF31E0330110509F0BACF36
:100D300084010031110510F400E110E0F801E6191A
:100D4000F709E230F10518F12E893F89B90180E0F9
:100D500090E0930140E050E0621B730B840B950B15
:100D6000982F872F762F66279F0140E050E00E9442
:100D7000980CC9012093602030936120DA018F3FE5
:100D80009105A105B10511F008F06BC08983888D2C
:100D90008F5F80933C208B3210F010923C208E8924
:100DA0009F8980935B2090935C2060926521709274
:100DB000662100935D2010935E20298120933D20C1
:100DC00020935F20209362200091302010913120E9
:100DD000B80180E090E030E040E050E00E94660C16
:100DE0002FEF30E040E050E00E94980C021B130B04
:100DF000E0E0FAE000AF11AF00933E0A10933F0A23
:100E000004AF15AF81E0809337206896CDBFDEBF79
:100E1000CF91DF91FF91EF91BF91AF919F918F9112
:100E20007F916F915F914F913F912F911F910F9102
:100E3000FF90EF90DF90CF90BF90AF909F908F90FA
:100E40007F906F905F904F903F902F900F900BBED0
:100E50000F9009BE0F9008BE0F900FBE0F901F900D
:100E600018958FEF90E0A0E0B0E090CFEF92FF9266
:100E70000F931F93CF93DF937C018B0116161706F8
:100E800064F4C0E0D0E0F701EC0FFD1F80810E9408
:100E9000E8072196C017D107B4F3DF91CF911F91D6
:100EA0000F91FF90EF900895CF93DF93FC01808125
:100EB000882339F0EF010E94E80789812196882371
:100EC000D1F7DF91CF9108950E94E80708958058E7
:100ED0000E94FE07089582E00E94FE07089581E0C7
:100EE0000E94FE0708950E94AA0780E30E94FE0761
:100EF00080E89EE30197F1F780E30E94FE0780E31C
:100F00000E94FE0789E30E94FE0784E10E94FE071B
:100F100086E50E94FE078DE60E94FE0788E70E9494
:100F2000FE078CE00E94FE0786E00E94FE0786E036
:100F30000E94FE0781E00E94FE0720E030E040E2D0
:100F400053E0CA010197F1F72F5F3F4F2436310577
:100F5000C1F708958F929F92AF92CF92EF920F9325
:100F600040E4842E46E0942E83E1F401818388E3FB
:100F7000848B808B80E1858381E0868387E691E2A4
:100F800060EC78E040E456E020E000E0EE24CC2481
:100F900032E0A32E0E94320B82E0F4018683E0E867
:100FA000FEE33197F1F7F401858320E030E040E281
:100FB00053E0CA010197F1F72F5F3F4F283C3105FD
:100FC000C1F70F91EF90CF90AF909F908F900895C1
:100FD000FF920F931F93682F00E416E050E1F52E67
:100FE000F801F68281E0858387E691E20E94160C83
:100FF000F801F5821F910F91FF900895FF920F93D2
:101000001F93682F00E416E070E1F72EF801F682D6
:1010100081E0868387E691E20E94160CF801F58252
:101020001F910F91FF900895FC018081807F862B96
:1010300080830895FC018081807F862B80830895C2
:10104000FC018181887F862B81830895FC01818149
:10105000887F862B81830895FC0183818071806263
:10106000862B83830895FC01838180718062862BA7
:1010700083830895FC018181607F862B818308959D
:10108000FC0181816073862B81830895FC0181813D
:10109000607F6095862381830895FC018181607360
:1010A0006095862381830895FC0186818C7F862B41
:1010B00086830895FC0186818C7F862B8683089524
:1010C000FC018681837F862B86830895FC018681BF
:1010D000837F862B86830895FC0187818C7F862BF6
:1010E00087830895FC0187818C7F862B87830895F1
:1010F000FC018781837F862B87830895FC0187818C
:10110000837F862B87830895FC0187818F7C862BC4
:1011100087830895FC0187818F73862B87830895C9
:10112000FC018081807F80838CE081870895FC01B1
:101130008081807F80838CE081870895FC01662315
:1011400051F49081442311F481E001C089E0977F3C
:10115000892B808308959181442311F481E001C09B
:1011600089E0977F892B81830895FC01662321F410
:1011700080818E7F8083089581818E7F8183089511
:10118000FC01242B662329F480818F70282B208377
:10119000089581818F70282B21830895FC01662397
:1011A00029F48081897F842B808308958181897FC0
:1011B000842B81830895FC01242B662329F48281EA
:1011C000807C282B228308958381807C282B238395
:1011D0000895FC0185816F73807C862B858308953B
:1011E000FC0186816061642B807F862B8683089555
:1011F000FC018FEE86830895FC01848181608483E5
:101200000895FC0184818E7F84830895FC01662308
:1012100019F4878180710895613011F080E008959C
:10122000878180720895FC018781807C0895FC018C
:10123000662329F4878180FFFDCF81E004C0878188
:1012400081FFFDCF82E087830895FC01878182FFC3
:10125000FDCF84E087830895DC0182E0A030B807E9
:1012600081F482E08093CA01E0E2F0E0E491109220
:10127000CA011C96EC931C978093CA01E1E2F0E04E
:101280000FC082E08093CA01E4E2F0E0E4911092A2
:10129000CA011C96EC931C978093CA01E5E2F0E02A
:1012A000E4911092CA011D96EC930895FC0181E02F
:1012B000838324813581261B3109C9010895FC01EE
:1012C00081E0838324813581772767FD7095261B14
:1012D000370BC9010895FC0181E0838324813581A6
:1012E000C9010895FC0181E0838384810895FC0194
:1012F00081E0838385810895FC0184811482A0E0CC
:10130000B2E01197F1F784830895FC01948181E0A4
:101310008483A0E0B4E01197F1F794830895FB0172
:101320004423D9F020E030E040E050E061E08081EB
:1013300080688083838180FFFDCF63838481958172
:10134000280F391F4F5F5F4F4430510581F73695A5
:10135000279536952795822F089580818068808310
:10136000838180FFFDCF81E083838481958108950F
:10137000FB014423D9F040E050E020E030E061E0A0
:10138000808180688083838180FFFDCF6383848137
:101390009581480F591F2F5F3F4F2430310581F74A
:1013A000CA0164E070E00E94850C0BC080818068F7
:1013B0008083838180FFFDCF81E083838481958159
:1013C000682F862F0895AAECB1E092E09C93E82F55
:1013D000F0E0E4911C928E2F08950F93DF93CF934A
:1013E0000F92CDB7DEB72FB72983F8941BBEFC014F
:1013F00008ED04BF608389818FBF0F90CF91DF918B
:101400000F910895662311F490E001C090E2482BFB
:10141000942BE0E5F0E0928308956F71682BE0E58E
:10142000F0E065830895E0E5F0E02081982F909545
:10143000922390839081892308950F93DF93CF9314
:101440000F92CDB7DEB79FB79983F8941BBE682B78
:1014500081E490E0FC0108ED04BF608389818FBFC7
:101460000F90CF91DF910F9108950F93DF93CF935A
:101470000F92CDB7DEB7209140009FB79983F894C3
:101480001BBEA0E4B0E0287F282BFD0108ED04BFBF
:10149000208399819FBF9C9189230F90CF91DF91E9
:1014A0000F910895E0E4F0E09381917F9160982B93
:1014B00093830895282F30915600662311F0982FBA
:1014C00001C090E0822F80958323982BE0E5F0E027
:1014D0009683213031F480916800816080936800A8
:1014E0000895223029F4809160008160809360002B
:1014F00008950F93DF93CF930F92CDB7DEB78FB7D9
:101500008983F8941BBE23E083E590E0FC0108ED9D
:1015100004BF208389818FBF0F90CF91DF910F91FE
:1015200008950F93DF93CF930F92CDB7DEB78FB7A8
:101530008983F8941BBE21E082E490E0FC0108ED71
:1015400004BF208389818FBF0F90CF91DF910F91CE
:101550000895FC0181818F7981838281867E682B49
:10156000642B62838081827F8560808308950F93DE
:10157000FC0181818F79806481838281867E682BE2
:10158000642B6283022B048380818D6080830F91A2
:101590000895FC01442319F4608F718F0895628FC0
:1015A000738F0895FC018581662319F421E030E0F2
:1015B00002C022E030E040E090E028233923232BD2
:1015C00009F041E0842F0895FC0181818C7F862BF6
:1015D0008183477043830895883010F080E0089538
:1015E000E82FF0E0E058FE4F608381E008950F930C
:1015F000882331F0823021F0843011F080E010C077
:10160000442311F490E001C090E1211128E0062B61
:10161000902B922BE82FF0E0E857FE4F908381E06B
:101620000F910895883010F080E00895E82FF0E0E1
:10163000E857FE4F608381E00895E0E8F1E0818B98
:10164000608B0895E0EAF0E08281806498ED94BFB9
:1016500082830895E0EAF0E082818F7B98ED94BF69
:1016600082830895AF92CF92EF920F93DC01FB013A
:101670006D937C93119712964D935C9313971496E8
:101680001C921497CC2011F490E001C090E8222322
:1016900011F480E001C080E200650A29902B892BBB
:1016A0008083ED91FC911197E18215961D921C9219
:1016B00016971296ED91FC91139780EA81830F9112
:1016C000EF90CF90AF900895EF920F93DC01FB0164
:1016D0006D937C93119712964D935C9313972223ED
:1016E00011F480E401C080E6802B8083ED91FC91B1
:1016F0001197E1821296ED91FC91139780E481831A
:101700000F91EF900895EF920F931F93FC010083C8
:101710001183E28263837483458356832783108613
:1017200011861F910F91EF900895CF93DF93DC0105
:101730001596CD91DC9116979885ED91FC911197B6
:10174000808184FD05C081E014968C93149724C099
:101750008381ED81FE81E90FF11D80839F5F1596E6
:10176000ED91FC9116978781981758F40380F481C6
:10177000E02DE90FF11D8081ED91FC91119783839C
:101780000BC082810190F081E02D85831596ED914B
:10179000FC91169781E081871596ED91FC91169743
:1017A0009087DF91CF910895CF93DF93DC01EB0118
:1017B00014969C9114971596ED91FC91169730977D
:1017C00029F415966D937C93169710C08185882314
:1017D00011F482E028C0992349F01296ED91FC9112
:1017E0001397848184FD02C081E01DC01596CD93BE
:1017F000DC931697198614961C9214978A81E881B7
:10180000F98186831596ED91FC91169710861596B1
:10181000ED91FC9116970380F481E02D8081ED918C
:10182000FC91838380E0DF91CF910895FC01A0813A
:10183000B18113966C930190F081E02D828187FF36
:10184000FDCF83810895CF93DF93EC01FB016115F8
:10185000710511F480E037C06D837E834281A081E1
:10186000B181109711F016964C93678190E01AC0E1
:10187000292F30E00380F481E02DE20FF31F8081F7
:10188000E881F9818383E881F981828187FFFDCF37
:101890008381ED81FE810580F681E02DE20FF31F4B
:1018A00080839F5FED81FE81961710F30190F08198
:1018B000E02D309709F04583ED81FE816087ED8151
:1018C000FE8181E08187DF91CF910895629FD001F1
:1018D000739FF001829FE00DF11D649FE00DF11DEB
:1018E000929FF00D839FF00D749FF00D659FF00D9A
:1018F0009927729FB00DE11DF91F639FB00DE11D87
:10190000F91FBD01CF011124089597FB092E072669
:101910000AD077FD04D02ED006D000201AF470959E
:1019200061957F4F0895F6F7909581959F4F0895A3
:10193000A1E21A2EAA1BBB1BFD010DC0AA1FBB1FD3
:10194000EE1FFF1FA217B307E407F50720F0A21B45
:10195000B30BE40BF50B661F771F881F991F1A94B2
:1019600069F760957095809590959B01AC01BD01DC
:10197000CF010895AA1BBB1B51E107C0AA1FBB1FC3
:10198000A617B70710F0A61BB70B881F991F5A950B
:10199000A9F780959095BC01CD0108950F931F93F1
:1019A000DF93CF93CDB7DEB72E97CDBFDEBF0E89C5
:1019B0001F8986E08C8309831A838FEF9FE78D83CD
:1019C0009E839E01265E3F4FCE010196688D798DE4
:1019D000A9010E94F90C2F813885020F131FF8010D
:1019E00010822E96CDBFDEBFCF91DF911F910F9158
:1019F00008952F923F924F925F926F927F928F92B3
:101A00009F92AF92BF92CF92DF92EF92FF920F938D
:101A10001F93DF93CF93CDB7DEB72B97CDBFDEBF3C
:101A20003C012B015A01FC0116821782838181FD42
:101A300003C06FEF7FEFC6C19AE0892E1E010894A4
:101A4000211C311CF3012381F20123FD859123FF29
:101A500081912F01882309F4B2C1853239F423FD25
:101A6000859123FF81912F01853229F490E0B30104
:101A70000E940F0FE7CF982FFF24EE249924FFE157
:101A8000FF15D0F09B3269F09C3228F4903259F067
:101A9000933291F40EC09D3249F0903369F441E0E5
:101AA00024C052E0F52A84E0F82A28C098E0F92AF8
:101AB00025C0E0E1FE2A22C0F7FC29C0892F80530F
:101AC0008A3070F4F6FE05C0989C902C1124980E74
:101AD00015C0E89CE02C1124E80EF0E2FF2A0EC0AD
:101AE0009E3229F4F6FC6BC140E4F42A07C09C3610
:101AF00019F450E8F52A02C0983649F4F20123FDA2
:101B0000959123FF91912F01992309F0B8CF892F47
:101B10008554833018F08052833038F444E050E02C
:101B2000A40EB51E5FE359830FC0933631F093378F
:101B300079F0933509F056C020C0F5018081898382
:101B400042E050E0A40EB51E610101E010E012C0B9
:101B5000F501C080D180F6FC03C06FEF7FEF02C0BB
:101B6000692D70E042E050E0A40EB51EC6010E944F
:101B7000040F8C015FE7F52214C0F501C080D1800D
:101B8000F6FC03C06FEF7FEF02C0692D70E042E00A
:101B900050E0A40EB51EC6010E94F90E8C0150E85B
:101BA000F52AF3FE07C01AC080E290E0B3010E945C
:101BB0000F0FEA948E2D90E008171907A8F30EC0B6
:101BC000F601F7FC8591F7FE81916F0190E0B3017A
:101BD0000E940F0FE110EA94015010400115110509
:101BE00079F7EAC0943611F0993669F5F7FE08C026
:101BF000F501208131814281538184E090E00AC067
:101C0000F501808191819C01442737FD4095542F37
:101C100082E090E0A80EB91E9FE6F92257FF09C0A6
:101C200050954095309521953F4F4F4F5F4FE0E8DD
:101C3000FE2ACA01B901A1012AE030E00E943B0F4F
:101C4000D82ED21840C0953729F41F2D1F7E2AE0C8
:101C500030E01DC01F2D197F9F3661F0903720F4B2
:101C6000983509F0ACC00FC0903739F0983709F0BB
:101C7000A6C004C028E030E00AC0106114FD146062
:101C800020E130E004C014FD166020E132E017FFCF
:101C900008C0F501608171818281938144E050E048
:101CA00008C0F50180819181BC0180E090E042E0B4
:101CB00050E0A40EB51EA1010E943B0FD82ED218F1
:101CC0008FE7F82EF122F6FE0BC05EEFF522D91455
:101CD00038F4F4FE07C0F2FC05C08FEEF82202C013
:101CE0001D2D01C0192DF4FE0DC0FE01ED0DF11DDD
:101CF0008081803319F499EEF92208C01F5FF2FE4B
:101D000005C003C08F2D867809F01F5F0F2DF3FCEF
:101D100014C0F0FE0FC01E1510F09D2C0BC09D2CA2
:101D20009E0C911A1E2D06C080E290E0B3010E9425
:101D30000F0F1F5F1E15C0F304C01E1510F4E11A2B
:101D400001C0EE2404FF0FC080E390E0B3010E94C5
:101D50000F0F02FF1DC001FD03C088E790E00EC019
:101D600088E590E00BC0802F867891F001FF02C0DB
:101D70008BE201C080E2F7FC8DE290E0B3010E94AB
:101D80000F0F06C080E390E0B3010E940F0F9A94FA
:101D9000D914C0F3DA94F101ED0DF11D808190E0CA
:101DA000B3010E940F0FDD20A9F706C080E290E08A
:101DB000B3010E940F0FEA94EE20C1F743CEF30166
:101DC00066817781CB012B96CDBFDEBFCF91DF91AE
:101DD0001F910F91FF90EF90DF90CF90BF90AF9049
:101DE0009F908F907F906F905F904F903F902F903B
:101DF0000895FC010590615070400110D8F780955E
:101E000090958E0F9F1F0895FC01615070400190C6
:101E10000110D8F7809590958E0F9F1F08950F930E
:101E20001F93CF93DF938C01EB018B8181FF1BC04C
:101E300082FF0DC02E813F818C819D81281739073B
:101E400064F4E881F9810193E883F98306C0E885A9
:101E5000F985802F1995892B31F48E819F81019608
:101E60008E839F8302C00FEF1FEFC801DF91CF91D8
:101E70001F910F910895FA01AA27283051F12031BE
:101E800081F1E8946F936E7F6E5F7F4F8F4F9F4F0E
:101E9000AF4FB1E03ED0B4E03CD0670F781F891F50
:101EA0009A1FA11D680F791F8A1F911DA11D6A0F1E
:101EB000711D811D911DA11D20D009F468943F91D1
:101EC0002AE0269F11243019305D3193DEF6CF01D0
:101ED0000895462F4770405D4193B3E00FD0C9F796
:101EE000F6CF462F4F70405D4A3318F0495D31FD03
:101EF0004052419302D0A9F7EACFB4E0A695979556
:101F0000879577956795BA95C9F70097610571052B
:101F100008959B01AC010A2E069457954795379575
:101F20002795BA95C9F7620F731F841F951FA01DCF
:061F30000895F894FFCFB4
:101F36004552524F5200613A2532582C20623A25BA
:101F460032582C20633A2532580066696E64696EF1
:0C1F56006720706572696F6400800C00E9
:00000001FF
